:020000040800F2
:10000000D006002089010008CD1400087D100008EA
:10001000CB140008A1020008A7150008000000008A
:100020000000000000000000000000004115000872
:10003000B902000800000000CF14000843150008B2
:10004000A3010008A3010008A3010008A301000800
:10005000A3010008A3010008A3010008A3010008F0
:10006000A3010008A3010008A3010008A3010008E0
:10007000A3010008A3010008A3010008A3010008D0
:10008000A3010008A3010008A3010008A3010008C0
:10009000A3010008A3010008A3010008A3010008B0
:1000A000A3010008A3010008A3010008A3010008A0
:1000B000A3010008A3010008A3010008A301000890
:1000C000A3010008A3010008A3010008A301000880
:1000D000A3010008A3010008A3010008A301000870
:1000E000A3010008A3010008A301000800F002F822
:1000F00000F03AF80AA090E8000C82448344AAF188
:100100000107DA4501D100F02FF8AFF2090EBAE885
:100110000F0013F0010F18BFFB1A43F0010318473B
:100120006015000080150000103A24BF78C878C11F
:10013000FAD8520724BF30C830C144BF04680C60ED
:10014000704700000023002400250026103A28BF35
:1001500078C1FBD8520728BF30C148BF0B60704739
:100160001FB51FBD10B510BD00F058F81146FFF7C0
:10017000F7FF01F029FA00F076F803B4FFF7F2FF79
:1001800003BC00F07DF8000009488047094800479B
:10019000FEE7FEE7FEE7FEE7FEE7FEE7FEE7FEE737
:1001A000FEE7FEE704480549054A064B7047000094
:1001B000A5150008ED000008D0000020D0060020A2
:1001C000D0020020D00200204FF0000200B51346FC
:1001D00094469646203922BFA0E80C50A0E80C5067
:1001E000B1F12001BFF4F7AF090728BFA0E80C5018
:1001F00048BF0CC05DF804EB890028BF40F8042B11
:1002000008BF704748BF20F8022B11F0804F18BF7D
:1002100000F8012B7047704770477047754600F033
:100220002BF8AE4605006946534620F00700854688
:1002300018B020B5FFF7B6FFBDE820404FF000062C
:100240004FF000074FF000084FF0000B21F00701BE
:10025000AC46ACE8C009ACE8C009ACE8C009ACE801
:10026000C0098D46704710B50446AFF300802046A4
:10027000BDE81040FFF781BF0048704770000020C4
:1002800001491820ABBEFEE726000200704700F0CF
:100290000F01000900EB800001EB4000C0B2704785
:1002A000FEE70A21B0FBF1F201FB1202B0FBF1F014
:1002B00042EA0010C0B270477047000010B586B027
:1002C00004464FF47A72072103A88DE80700164808
:1002D00001230022D021006800F0E2F99DF80C0013
:1002E000FFF7D5FF20709DF80D00FFF7D0FF60707D
:1002F0009DF80E00FFF7CBFFA0709DF80F00FFF7F1
:10030000C6FFE0709DF81000FFF7C1FF20719DF857
:100310001100FFF7BCFF60719DF81200FFF7B7FFF7
:10032000A07106B010BD0000080000202DE9F84FB4
:10033000DFF8B8910024A9F1040B23460F2709F137
:10034000040AABF1040EC9E00125A5402A40AA42E7
:100350007DD1674ED1F804C0ACEB0608B44532D06D
:1003600014DCBCF1030F3AD009DCBCF1000F2AD039
:10037000BCF1010F1CD0BCF1020F31D11DE0BCF16A
:10038000110F17D0BCF1120F2AD119E0B8F5881F50
:1003900019D006DCB8F5803F15D0B8F5801F1FD105
:1003A00011E0B8F5001F0ED0B8F5041F18D10AE00F
:1003B000CB6815E0CB681B1D12E0CB6808330FE05B
:1003C000CB680C330CE08B682BB1012B4FF008038A
:1003D00003D0456104E0042302E0056100E000234E
:1003E000FF2A01D8064601E000F104064FEA840521
:1003F00001D9A5F12005D6F8008007FA05FC28EA06
:100400000C0803FA05F548EA0508C6F800804D68AF
:10041000ED0062D5374DAE6946F00106AE61AD69BB
:1004200024F0030605F001050095334D06EB050C9D
:10043000DCF80850A607360F07FA06F825EA080583
:10044000DFF8B880404503D14FF0000817E044E0E2
:10045000DFF8AC80404502D14FF001080FE0DFF833
:10046000A480404502D14FF0020808E0DFF89880F0
:10047000404502D14FF0030801E04FF0040808FAAC
:1004800006F848EA0508CCF808804D68D9F80060FD
:10049000ED024D4601D5164300E096432E604D68AF
:1004A000DAF80060AD02554601D5164300E09643E8
:1004B0002E604D68DBF80060AD035D4601D5164344
:1004C00000E096432E604D68DEF80060ED0375464F
:1004D00001D5164300E096432E60641C0D682A4641
:1004E000E5407FF431AFBDE8F88F0000080401401B
:1004F00000001110001002400000014000080140FF
:10050000000C0140001001400014014001488068C7
:10051000704700000C00002070B5040025D094F84E
:100520003D00002520B984F83C50204600F07EFABA
:10053000242084F83D002068016821F00101016059
:100540002068016841F4004101602068016821F4DD
:100550000041016000F0B8FB4D4A6168914201D84A
:100560004C4900E04C49884201D2012070BD4B4902
:100570002368B0FBF1F15E6826F03F060E435E6033
:100580006368934206D94FF4967359434FF47A73D4
:10059000B1FBF3F12368491C1E6A26F03F06314384
:1005A00019626168914210D84900401EB0FBF1F217
:1005B000521CC2F30B02042A01D2042022E0B0FB39
:1005C000F1F0401CC0F30B001CE0A268F2B301EB99
:1005D000C10303EB0116431EB3FBF6F35B1C43F4AC
:1005E00080431B0549D092B301EBC10202EB01111C
:1005F000401EB0FBF1F0401CC0F30B0040F4804003
:1006000040F400402168CA694CF6FF739A431043D6
:10061000C861D4E9071001432068026822F0C002D3
:1006200011430160D4E9030101432068826848F264
:10063000FF339A4311438160D4E9050108432168DF
:10064000CA6822F0FF021043C86001E00EE016E025
:100650002068016841F0010101602564202084F8D0
:100660003D00256384F83E50002070BD01EB41063B
:10067000431EB3FBF6F35B1CB3E70120C2E701EBBB
:100680004101401EB0FBF1F0401CC0F30B00B7E786
:10069000A086010080841E0000093D0040420F003A
:1006A0002DE9FF4F83B00025DDE910799A46934686
:1006B0000446DDF848800095FFF728FF064694F8C9
:1006C0003D0020287CD1192301228849204600962C
:1006D00000F0F2FD0028F5D194F83C0001286FD01D
:1006E000012084F83C0020680168C90703D1016833
:1006F00041F0010101602068016821F4006101609E
:10070000222084F83D00402084F83E002564676282
:10071000A4F82A90608D20857548E062CDE90086B6
:1007200053465A462046049900F0C8FC00287CD164
:10073000208DDFF8C091202768B1012814D002284D
:10074000206801681ED041F4806101602068416921
:1007500080690090BCE0206841698169009101686E
:1007600041F400710160B3E02068016821F4806108
:10077000016072B62068416981690091016841F4A5
:1007800000710AE041F40061016072B620684169BD
:1007900081690091016821F48061016062B697E08F
:1007A000032865D801280CD0022843464FF00002E8
:1007B0004946204600960BD000F07EFDA8BB0CE019
:1007C00091E032464146204600F01CFE68BB72E0D4
:1007D00000F072FD48BB72B633E02068016821F476
:1007E0008061016072B620680069616A0870606AA1
:1007F000401C6062208D401E2085608D401E6085FB
:100800003D4846F2A8110068B0FBF1F0C0EBC00013
:1008100000EB80000090401E009007D020684069E7
:10082000C04340070DD50098F5E727E044F8305F56
:100830006773A573206940F02000206162B62573BC
:100840001CE02068016841F40071016020680069C3
:10085000616A0870606A401C6062218D491E2185B2
:10086000618D491E618562B621680969017026E0C3
:1008700032464146204600F0C5FD18B1012007B0C0
:10088000BDE8F08F20680069616A0870606A401CEA
:100890006062208D401E81B22185608D401E608582
:1008A00020684269D243520712D4032903D1016858
:1008B00021F48061016020680069616A0870606AE3
:1008C000401C6062208D401E2085608D401E60852A
:1008D000208D00287FF464AF84F83D7084F83E508A
:1008E00084F83C50CBE70220C9E70000020010006A
:1008F0000000FFFF04000100180000202DE9FF4F59
:1009000083B09A46DDE9119793460446DDF84080AE
:10091000FFF7FCFD054694F83D0020287FD1192300
:10092000012240492046009500F0C6FC002876D1FF
:1009300094F83C00012872D0012084F83C00206823
:100940000168C90703D1016841F001010160206815
:10095000016821F400610160212084F83D004020FD
:1009600084F83E0000262664C4F82480A4F82A9067
:10097000608D20852C48E062CDE9007553465A46CB
:100980002046049900F018FC70B930E02A46394638
:10099000204600F06FFD58B1206C042804D1206877
:1009A000016841F400710160012007B0BDE8F08FDB
:1009B000606A216800780861606A401C6062218D6D
:1009C000491E89B22185628D521E62852268536953
:1009D000DB435B070BD469B100781061606A401C8F
:1009E0006062208D401E2085608D401E6085208DB8
:1009F0000028CBD12A463946204600F031FC002899
:100A0000CAD154F83D0B016841F400710160202007
:100A100004F81E09E67766770020C6E7FFE70220A4
:100A2000C3E70000020010000000FFFF10B586B011
:100A30000021009101910291039100680F498842C1
:100A40001AD10F4CA06940F00800A061A069694666
:100A500000F008000490C0200090122001900320B4
:100A600003900848FFF762FCE06940F40010E06181
:100A7000E06900F40010049006B010BD005400407E
:100A800000100240000C01400248816802781144C5
:100A9000816070470C000020074810B5016841F0E4
:100AA00010010160032000F067F80F2000F006F845
:100AB00000F024F8002010BD0020024070B50D4D5C
:100AC00004464FF47A712878B1FBF0F00A490968BE
:100AD000B1FBF0F000F0BEFA48B9102C07D20022AA
:100AE0002146501E00F028F800206C6070BD0120E7
:100AF00070BD00000C000020180000200C4808B554
:100B0000816941F001018161816901F00101009178
:100B1000C16941F08051C161C06900F0805000900E
:100B20000448416821F0E06141F00071416008BD76
:100B30000010024000000140F0B40E4B1B680C4650
:100B4000C3F30223C3F10705042D00D90425191DA1
:100B5000072901D2002300E0DB1E012606FA05F179
:100B6000491E214099409E40761E16403143F0BCFC
:100B700000F01ABD0CED00E0064900F0070208681D
:100B80004FF6FF03184040EA0220034A1043086072
:100B9000704700000CED00E00000FA052DE9F04779
:100BA0000F46050061D0434E306800F00700B842A0
:100BB00009D2306820F0070038433060306800F018
:100BC0000700B84251D128683B4C810712D5400735
:100BD00003D5606840F4E06060602878000703D5C2
:100BE000606840F4605060606068A96820F0F000C0
:100BF000084360602878C00728D06868012810D0B2
:100C00002168022810D0890700292EDA616821F0B6
:100C1000030101436160FFF779FC804641F28839A6
:100C20000DE021688903EFE78901EDE7FFF76EFC2E
:100C3000A0EB0801494502D90320BDE8F0876068B0
:100C4000696800F00C00B0EB810FEFD1306800F064
:100C50000700B8420BD9306820F0070038433060F5
:100C6000306800F00700B84201D00120E5E728789D
:100C7000400705D56068E96820F4E06008436060DB
:100C80002878000706D56068296920F4605040EA9A
:100C9000C100606000F028F86168084AC1F30311E0
:100CA000515CC8400649086006480068FFF706FF27
:100CB0000020C2E700200240001002406616000833
:100CC0001800002010000020044805490068496809
:100CD000044AC1F30221515CC8407047180000204B
:100CE00000100240761600080E4A51680E4801F0C6
:100CF0000C03042B11D0082B0FD10C48C1F38343F4
:100D0000C903C05C0AD55168084AC1F34041921E2C
:100D1000515C054A5043B0FBF1F070470449484329
:100D2000704700000010024000127A0056160008BA
:100D300000093D002DE9F84F040070D02078C04D27
:100D4000C00749D06868C0F38100012807D06868EF
:100D5000C0F38100022809D16868C00306D528685D
:100D6000800339D560680028E7D035E06068B0F5C9
:100D7000803F0BD010B1B0F5A02F11D0286820F41F
:100D800080302860286820F4802002E0286840F441
:100D900080302860606890B1FFF7B8FB06460AE033
:100DA000286840F480202860F0E700BFFFF7AEFB22
:100DB000801B642873D828688003F7D50CE0FFF700
:100DC000A5FB064605E000BFFFF7A0FB801B6428DB
:100DD000F0D828688003F7D420789A4E80074FF027
:100DE00001094FF0000839D5686810F00C0F07D0E2
:100DF0006868C0F38100022809D16868C00306D47E
:100E00002868800714D52069012808D110E02069DE
:100E1000B0B1C6F80090FFF779FB074605E00AE19C
:100E2000FFF774FBC01B0228C4D828688007F7D5D9
:100E30002868616920F0F80040EAC10028600DE0F0
:100E4000C6F80080FFF762FB074604E0FFF75EFB91
:100E5000C01B022823D828688007F7D42078000711
:100E60002CD57948A169D9B1C0F80090FFF74EFBA5
:100E7000074604E0FFF74AFBC01B02280FD8686A48
:100E80008007F7D571484FF4FA510068B0FBF1F0D4
:100E9000009000BF0098411E0091FAD20EE080E061
:100EA000C0F80080FFF732FB074604E0FFF72EFB97
:100EB000C01B022875D8686A8007F7D420784007DD
:100EC00060D5E8690027C00008D4E86940F0805088
:100ED000E861E869012700F0805000905C480168F3
:100EE000C90513D40168834641F480710160FFF79E
:100EF0000DFB824606E000BFFFF708FBA0EB0A00EF
:100F000064284ED8DBF80000C005F5D5E06801285C
:100F10000AD008B1052813D0286A20F00100286201
:100F2000286A20F0040002E0286A40F001002862EC
:100F3000E06841F2883B98B1FFF7E8FA82460BE09F
:100F4000286A40F004002862EEE700BFFFF7DEFAEF
:100F5000A0EB0A0159455AD8286A8007F6D50CE05B
:100F6000FFF7D4FA824605E0FFF7D0FAA0EB0A01BA
:100F700059454CD8286A8007F6D41FB1E86920F09B
:100F80008050E861E06988B36968C1F38101022992
:100F900044D00228C6F8608004D0FFF7B7FA0446B0
:100FA00038E034E0FFF7B2FA074604E0FFF7AEFAA4
:100FB000C01B02282BD828688001F7D4206AB0F51E
:100FC000803F05D16868A16820F40030084368605C
:100FD000D4E908010843696821F474110843686082
:100FE000C6F86090FFF792FA044606E025E000BFDD
:100FF000FFF78CFA001B022809D828688001F7D572
:101000001BE000BFFFF782FA001B022802D9032071
:10101000BDE8F88F28688001F4D40EE00128F7D0ED
:101020006868226A00F48031914204D1616A00F458
:101030007010884201D00120EAE70020E8E70000B4
:10104000001002400000424280044242180000208A
:101050000070004010B5401EB0F1807F01D3012028
:1010600010BD4FF0E02460610F21601700F09CFA82
:101070000020A06107202061002010BDFEE70000D5
:1010800001490860704700000800002001684A69B3
:10109000D24352050FD46FF480624A61002140F8B8
:1010A000301F202242738173026942F00402026100
:1010B0000173012070470020704700002DE9F84FB0
:1010C0000446006889460B9D01689846174641F41E
:1010D000806101602068016841F4807101600095C1
:1010E0004FF0011B0022594620460A9B00F0E4F80D
:1010F0004FF4007A40B120680068C00501D5C4F8FB
:1011000040A00320BDE8F88F216809F0FE000861C7
:101110002B46284920460A9A00F016F9F0BB2068B1
:101120004169806900902A4620460A9900F0A2F998
:1011300040B1206C04283AD12068016841F4007164
:10114000016034E0FEB2B8F1010F09D02168380A1D
:1011500008612A4620460A9900F08CF90028E8D157
:10116000206806612A4620460A9900F083F9002883
:10117000DFD12068016841F4807101600095002290
:10118000594620460A9B00F097F80028B3D1216801
:1011900009F0FF0040F00100086100E007E02B4685
:1011A000044920460A9A00F0CFF80028AAD001206E
:1011B000A8E70000020001002DE9F843044600689A
:1011C0000D46DDE9089701689846164641F480719E
:1011D00001604B4600224FF001112046009700F0BD
:1011E0006BF848B120680068C00502D54FF4007064
:1011F00020640320BDE8F883216805F0FE00086143
:101200003B464A461549204600F09EF888B92068BA
:101210004169806900903A464946204600F02AF923
:1012200048B1206C042804D12068016841F40071A1
:1012300001600120DEE7F5B2B8F1010F09D02168A5
:10124000300A08613A464946204600F013F9002862
:10125000E7D1206805610020CCE700000200010012
:1012600070B516460D4604461EE02046FFF70EFFF9
:1012700008B1012070BD681C16D0FFF747F9801B2C
:10128000A84200D885B920684069C04340070BD503
:10129000002044F8300F20216173A073216941F0D0
:1012A000200121612073E4E720684069C0434007C2
:1012B000DBD4002070BD00002DE9F04798461746AA
:1012C0000D460446C1F30746DDF820902AE000BF32
:1012D000B8F1FF3F26D0FFF719F9A0EB090141450E
:1012E00002D8B8F1000F1DD12068012E16D08069F8
:1012F00025EA00000004000C12D00020B84211D1F1
:10130000002044F8300F20216173A073216941F05F
:101310002001216120730120BDE8F0874069E7E7E3
:101320000120EBE72068012E0AD0806925EA000041
:101330000004000C06D00020B842C9D00020EBE722
:101340004069F3E70120F7E72DE9F0479846164694
:101350000D4604464FF000094FF0200AC1F307473D
:1013600023E020684069C043400515D42068016827
:1013700041F40071016021686FF480604861C4F835
:10138000309084F83DA084F83E90216C41F0040137
:10139000216484F83C9021E0701C06D0FFF7B6F879
:1013A000A0EB0800B04203D816B1012F1FD021E0F6
:1013B0002068012F15D0806925EA00000004000C88
:1013C00018D000BF44F8309F84F80DA084F80E9028
:1013D000216941F02001216184F80C900120BDE8D1
:1013E000F087406925EA00000004000CEAD120687B
:1013F000406901E02068806925EA00000004000CD3
:10140000AFD1ECE72DE9F041002590460E460446A9
:10141000202728E04069C043C0060CD454F8301B94
:101420006FF01000486144F810596777A577206A7B
:101430002062257714E0FFF769F8A0EB0800B042BE
:1014400000D886B920684069C04340060BD544F8EF
:10145000305F6773A573206940F020002061257319
:101460000120BDE8F08120684169C9434906D1D413
:101470000020F6E770B516460D4604461EE02046ED
:10148000FFF704FE08B1012070BD681C16D0FFF7FD
:101490003DF8801BA84200D885B920684069C04348
:1014A00000060BD5002044F8300F20216173A07393
:1014B000216941F0200121612073E4E7206840693F
:1014C000C0430006DBD4002070BDFEE7FEE7704796
:1014D00000B5034685B00078FEF7E3FE8DF80C00FA
:1014E0005878FEF7DEFE8DF80D009878FEF7D9FEED
:1014F0008DF80E00D878FEF7D4FE8DF80F0018791D
:10150000FEF7CFFE8DF810005879FEF7CAFE8DF871
:1015100011009879FEF7C5FE8DF812004FF47A722B
:10152000072103A88DE80700044801230022D021E9
:101530000068FFF7E3F905B000BD000008000020D7
:101540007047FFF7A1BA30B58FB028216846FEF783
:101550003BFE14210AA8FEF737FE01210804CDE95D
:1015600000100024029402250491CDE907504FF4A5
:10157000E01009906846FFF7DDFB08B172B6FEE7A0
:101580000F20CDE90A054FF48060CDE90C4002211F
:101590000AA80E94FFF702FB002801D072B6FEE7FE
:1015A0000FB030BD7047FEE70907090E002804DBC5
:1015B00000F1E02080F80014704700F00F0000F107
:1015C000E02080F8141D704708B5FFF765FAFFF7B3
:1015D000BAFF1B48816941F020018161816901F0F6
:1015E00020010091816941F004018161816901F06C
:1015F00004010091816941F008018161806911490C
:1016000000F00800009010484FF4804201600F493C
:10161000416000218160C0E9031241618161C161C3
:101620000162FEF779FF08B172B6FEE70648FFF7E0
:1016300027FD0748FFF74CFF0548FEF73FFEFBE795
:1016400000100240005400401C000020A086010051
:1016500000000020010202030405060708090A0B26
:101660000C0D0E0F10100000000000000000010221
:10167000030406070809000000000102030400003B
:10168000A0160008000000201C000000280100082F
:10169000BC1600081C000020B4060000440100082D
:1016A00000111005110A18000000000001000000E0
:0C16B000100000000000000000127A0092
:04000005080000ED02
:00000001FF
