:020000040800F2
:10000000F806002091010008D9190008ED14000835
:10001000D7190008C1050008B31A00080000000045
:100020000000000000000000000000004D1A000861
:10003000D905000800000000DB1900084F1A00086D
:10004000AB010008AB010008AB010008AB010008E0
:10005000AB010008AB010008AB010008AB010008D0
:10006000AB010008AB010008AB010008AB010008C0
:10007000AB010008AB010008AB010008AB010008B0
:10008000AB010008AB010008AB010008AB010008A0
:10009000AB010008AB010008AB010008AB01000890
:1000A000AB010008AB010008AB010008AB01000880
:1000B000AB010008AB010008AB010008AB01000870
:1000C000AB010008AB010008AB010008AB01000860
:1000D000AB010008AB010008AB010008AB01000850
:1000E000AB010008AB010008AB01000800F002F80A
:1000F00000F03FF80AA090E8000C82448344AAF183
:100100000107DA4501D100F034F8AFF2090EBAE880
:100110000F0013F0010F18BFFB1A43F0010318473B
:10012000481C0000681C0000103A24BF78C878C141
:10013000FAD8520724BF30C830C144BF04680C60ED
:10014000704700000023002400250026103A28BF35
:1001500078C1FBD8520728BF30C148BF0B60704739
:10016000642900F07180002070471FB51FBD10B5D5
:1001700010BD00F0E2F91146FFF7F7FF01F036FD80
:1001800000F000FA03B4FFF7F2FF03BC00F008FA36
:100190000948804709480047FEE7FEE7FEE7FEE71B
:1001A000FEE7FEE7FEE7FEE7FEE7FEE70448054957
:1001B000054A064B70470000B11A0008ED00000820
:1001C000F8000020F8060020F8020020F8020020C5
:1001D0000FB41CB5074B06AA7B44694600900598EE
:1001E00000F093F90020694600F0A2F91CBC5DF80C
:1001F00014FB00005503000070B5044685690068D3
:10020000C10601D5302600E02026C00707D070BD0A
:10021000D4E9012130469047206A401C20626D1EBF
:10022000F6D570BD70B5044685690078C00707D162
:1002300070BDD4E9012120209047206A401C206233
:100240006D1EF6D570BD00002DE9F0410646002474
:1002500010687529314616A510D0AFF3008000282C
:1002600002DA404213A507E031688A0701D512A5DA
:1002700002E0490704D511A5012401E0AFF3008095
:1002800000210A2206F1240709E0B0FBF2FCB0FBD2
:10029000F2F302FB1C00303078541846491C002849
:1002A000F3D123462A463046BDE8F04100F0CEB8EF
:1002B000000000002D0000002B00000020000000C6
:1002C0002DE9F05F894604464FF0000ADFF824B1BB
:1002D000FB44C0F820A02046E168884700287DD074
:1002E000252806D0D4E901219047206A401C2062CD
:1002F000F1E700255F462046E1688847202806464A
:1003000007DB312E05D2B81910F8200C08B10543CF
:10031000F1E7A80701D525F00405C4F81CA00027C3
:10032000C4F818A02A2E09D0304601F0D3FB38B308
:1003300004EB8708303EC8F8186019E059F8041B30
:10034000204604EB87029161E1688847012F064649
:1003500018D1E069002820DA25F020051DE0D8F842
:10036000180000EB800006EB40003038C8F8180099
:100370002046E1688847064601F0ACFB0028EED134
:10038000012F0AD02E2E08D12046E16888477F1C15
:100390000646022F45F02005C4DBA069002803DAD9
:1003A000404245F00105A061E80701D025F01005A5
:1003B000A6B1A6F14100192802D8203645F40065FF
:1003C0004A463146204625604D46FFF7C9FE60B1DA
:1003D000012807D0ED1D25F0070000E007E000F13F
:1003E000080978E705F1040975E730467AE7206ADD
:1003F000BDE8F09F821A00004FF0000200B51346DE
:1004000094469646203922BFA0E80C50A0E80C5034
:10041000B1F12001BFF4F7AF090728BFA0E80C50E5
:1004200048BF0CC05DF804EB890028BF40F8042BDE
:1004300008BF704748BF20F8022B11F0804F18BF4B
:1004400000F8012B70477047704770472DE9F0475F
:100450000D4699469246044600F124080168880634
:1004600004D5E06921F01001216000E00120A842DC
:1004700001DD471B00E00027A1697A1902EB0900A2
:10048000081AA0612078C00602D42046FFF7B4FE07
:10049000002608E0D4E901211AF806009047206AF6
:1004A000401C761C20624E45F4DB2078C0060AD53D
:1004B0002046FFF7A1FE06E0D4E901213020904755
:1004C000206A401C2062381EA7F10107F4DC07E017
:1004D000D4E9012118F805009047206A401C2062E9
:1004E000281EA5F10105F3DC2046FFF79BFE2078CE
:1004F000000602D50220BDE8F0870120FBE70000DE
:1005000001694A1C02610878704700B58FB0CDE9D7
:1005100001310021059105497944CDE903101146C7
:100520006846FFF7CDFE0FB000BD0000E5FFFFFFFE
:100530000A6802F8010B0A607047754600F02CF853
:10054000AE4605006946534620F00700854618B0C0
:1005500020B5FFF72BFEBDE820404FF000064FF01E
:1005600000074FF000084FF0000B21F00701AC46E8
:10057000ACE8C009ACE8C009ACE8C009ACE8C00907
:100580008D46704710B50446AFF300802046BDE8A5
:100590001040FFF7F7BD00000048704798000020AA
:1005A00001491820ABBEFEE726000200704700F0AC
:1005B0000F01000900EB800001EB4000C0B2704762
:1005C000FEE70A21B0FBF1F201FB1202B0FBF1F0F1
:1005D00042EA0010C0B270477047000010B586B004
:1005E00004464FF47A72072103A88DE807001648E5
:1005F00001230022D021006800F08AFA9DF80C0047
:10060000FFF7D5FF20709DF80D00FFF7D0FF607059
:100610009DF80E00FFF7CBFFA0709DF80F00FFF7CD
:10062000C6FFE0709DF81000FFF7C1FF20719DF834
:100630001100FFF7BCFF60719DF81200FFF7B7FFD4
:10064000A07106B010BD00000800002070B504467F
:1006500000F0FEF80546601C02D00448007804440F
:1006600000F0F6F8401BA042FAD370BD0C00002049
:100670002DE9F84FDFF8B8910024A9F1040B2346C7
:100680000F2709F1040AABF1040EC9E00125A540CA
:100690002A40AA427DD1674ED1F804C0ACEB0608CF
:1006A000B44532D014DCBCF1030F3AD009DCBCF104
:1006B000000F2AD0BCF1010F1CD0BCF1020F31D1C8
:1006C0001DE0BCF1110F17D0BCF1120F2AD119E0B7
:1006D000B8F5881F19D006DCB8F5803F15D0B8F5FD
:1006E000801F1FD111E0B8F5001F0ED0B8F5041F10
:1006F00018D10AE0CB6815E0CB681B1D12E0CB686F
:1007000008330FE0CB680C330CE08B682BB1012B66
:100710004FF0080303D0456104E0042302E00561C3
:1007200000E00023FF2A01D8064601E000F104069C
:100730004FEA840501D9A5F12005D6F8008007FA13
:1007400005FC28EA0C0803FA05F548EA0508C6F88E
:1007500000804D68ED0062D5374DAE6946F0010668
:10076000AE61AD6924F0030605F001050095334D37
:1007700006EB050CDCF80850A607360F07FA06F85A
:1007800025EA0805DFF8B880404503D14FF000089E
:1007900017E044E0DFF8AC80404502D14FF001089B
:1007A0000FE0DFF8A480404502D14FF0020808E0D6
:1007B000DFF89880404502D14FF0030801E04FF088
:1007C000040808FA06F848EA0508CCF808804D68DD
:1007D000D9F80060ED024D4601D5164300E096437E
:1007E0002E604D68DAF80060AD02554601D516431B
:1007F00000E096432E604D68DBF80060AD035D4677
:1008000001D5164300E096432E604D68DEF8006087
:10081000ED03754601D5164300E096432E60641C37
:100820000D682A46E5407FF431AFBDE8F88F00003F
:1008300008040140000011100010024000000140B7
:1008400000080140000C014000100140001401406C
:1008500001488068704700000C00002070B504005B
:1008600025D094F83D00002520B984F83C5020465E
:1008700000F014FB242084F83D002068016821F07A
:10088000010101602068016841F4004101602068B5
:10089000016821F40041016000F04EFC4D4A61689E
:1008A000914201D84C4900E04C49884201D20120D4
:1008B00070BD4B492368B0FBF1F15E6826F03F063E
:1008C0000E435E606368934206D94FF496735943B2
:1008D0004FF47A73B1FBF3F12368491C1E6A26F0CA
:1008E0003F06314319626168914210D84900401EA9
:1008F000B0FBF1F2521CC2F30B02042A01D2042015
:1009000022E0B0FBF1F0401CC0F30B001CE0A26839
:10091000F2B301EBC10303EB0116431EB3FBF6F385
:100920005B1C43F480431B0549D092B301EBC10229
:1009300002EB0111401EB0FBF1F0401CC0F30B00B4
:1009400040F4804040F400402168CA694CF6FF73CF
:100950009A431043C861D4E9071001432068026834
:1009600022F0C00211430160D4E903010143206871
:10097000826848F2FF339A4311438160D4E905014C
:1009800008432168CA6822F0FF021043C86001E0F2
:100990000EE016E02068016841F001010160256465
:1009A000202084F83D00256384F83E50002070BD6F
:1009B00001EB4106431EB3FBF6F35B1CB3E70120DA
:1009C000C2E701EB4101401EB0FBF1F0401CC0F357
:1009D0000B00B7E7A086010080841E0000093D00DF
:1009E00040420F002DE9F84F1F4690468A460446C4
:1009F000DDF82890FFF72CFF054694F83D002028ED
:100A00007FD11923012240492046009500F0DAFEEB
:100A1000002876D194F83C00012872D0012084F897
:100A20003C0020680168C90703D1016841F0010159
:100A300001602068016821F400610160212084F8D0
:100A40003D00102084F83E0000262664C4F824806F
:100A50006785608D20852D48E0622B464A465146C9
:100A6000204600F063FD90B92068416980690090DC
:100A700036E02A464946204600F082FF50B1206CFD
:100A8000042804D12068016841F40071016001204C
:100A9000BDE8F88F606A216800780861606A401CD0
:100AA0006062618D491E6185218D491E89B2218553
:100AB00022685369DB435B070BD451B100781061A6
:100AC000606A401C6062608D401E6085208D401E03
:100AD00020852A464946204600F048FE0028CED10F
:100AE000208D0028C5D154F83D0B016841F40071F8
:100AF0000160202004F81E09E67766770020C7E72A
:100B0000FFE70220C4E70000020010000000FFFF22
:100B10002DE9FF4F83B00025DDE910799A46934611
:100B20000446DDF848800095FFF792FE064694F8EB
:100B30003D0020287CD119230122884920460096B7
:100B400000F040FE0028F5D194F83C0001286FD059
:100B5000012084F83C0020680168C90703D10168BE
:100B600041F0010101602068016821F40061016029
:100B7000222084F83D00402084F83E00256467620E
:100B8000A4F82A90608D20857548E062CDE9008642
:100B900053465A462046049900F016FD00287CD1A1
:100BA000208DDFF8C091202768B1012814D00228D9
:100BB000206801681ED041F48061016020684169AD
:100BC00080690090BCE020684169816900910168FA
:100BD00041F400710160B3E02068016821F4806194
:100BE000016072B62068416981690091016841F431
:100BF00000710AE041F40061016072B62068416949
:100C000081690091016821F48061016062B697E01A
:100C1000032865D801280CD0022843464FF0000273
:100C20004946204600960BD000F0CCFDA8BB0CE056
:100C300091E032464146204600F06AFE68BB72E011
:100C400000F0C0FD48BB72B633E02068016821F4B3
:100C50008061016072B620680069616A0870606A2C
:100C6000401C6062208D401E2085608D401E608586
:100C70003D4846F2A8110068B0FBF1F0C0EBC0009F
:100C800000EB80000090401E009007D02068406973
:100C9000C04340070DD50098F5E727E044F8305FE2
:100CA0006773A573206940F02000206162B6257348
:100CB0001CE02068016841F400710160206800694F
:100CC000616A0870606A401C6062218D491E21853E
:100CD000618D491E618562B621680969017026E04F
:100CE00032464146204600F013FE18B1012007B0FD
:100CF000BDE8F08F20680069616A0870606A401C76
:100D00006062208D401E81B22185608D401E60850D
:100D100020684269D243520712D4032903D10168E3
:100D200021F48061016020680069616A0870606A6E
:100D3000401C6062208D401E2085608D401E6085B5
:100D4000208D00287FF464AF84F83D7084F83E5015
:100D500084F83C50CBE70220C9E7000002001000F5
:100D60000000FFFF04000100180000202DE9FF4FE4
:100D700083B09A46DDE9119793460446DDF840803A
:100D8000FFF766FD054694F83D0020287FD1192322
:100D9000012240492046009500F014FD002876D13C
:100DA00094F83C00012872D0012084F83C002068AF
:100DB0000168C90703D1016841F0010101602068A1
:100DC000016821F400610160212084F83D00402089
:100DD00084F83E0000262664C4F82480A4F82A90F3
:100DE000608D20852C48E062CDE9007553465A4657
:100DF0002046049900F066FC70B930E02A46394676
:100E0000204600F0BDFD58B1206C042804D12068B4
:100E1000016841F400710160012007B0BDE8F08F66
:100E2000606A216800780861606A401C6062218DF8
:100E3000491E89B22185628D521E628522685369DE
:100E4000DB435B070BD469B100781061606A401C1A
:100E50006062208D401E2085608D401E6085208D43
:100E60000028CBD12A463946204600F07FFC0028D6
:100E7000CAD154F83D0B016841F400710160202093
:100E800004F81E09E67766770020C6E7FFE7022030
:100E9000C3E70000020010000000FFFF10B586B09D
:100EA0000021009101910291039100680F4988424D
:100EB0001AD10F4CA06940F00800A061A0696946F2
:100EC00000F008000490C020009012200190032040
:100ED00003900848FFF7CCFBE06940F40010E061A4
:100EE000E06900F40010049006B010BD005400400A
:100EF00000100240000C0140024881680278114451
:100F0000816070470C000020074810B5016841F06F
:100F100010010160032000F067F80F2000F006F8D0
:100F200000F024F8002010BD0020024070B50D4DE7
:100F300004464FF47A712878B1FBF0F00A49096849
:100F4000B1FBF0F000F0BEFA48B9102C07D2002235
:100F50002146501E00F028F800206C6070BD012072
:100F600070BD00000C000020180000200C4808B5DF
:100F7000816941F001018161816901F00101009104
:100F8000C16941F08051C161C06900F0805000909A
:100F90000448416821F0E06141F00071416008BD02
:100FA0000010024000000140F0B40E4B1B680C46DC
:100FB000C3F30223C3F10705042D00D90425191D2D
:100FC000072901D2002300E0DB1E012606FA05F105
:100FD000491E214099409E40761E16403143F0BC88
:100FE00000F068BD0CED00E0064900F0070208685B
:100FF0004FF6FF03184040EA0220034A10430860FE
:10100000704700000CED00E00000FA052DE9F04704
:101010000F46050061D0434E306800F00700B8422B
:1010200009D2306820F0070038433060306800F0A3
:101030000700B84251D128683B4C810712D54007C0
:1010400003D5606840F4E06060602878000703D54D
:10105000606840F4605060606068A96820F0F0004B
:10106000084360602878C00728D06868012810D03D
:101070002168022810D0890700292EDA616821F042
:10108000030101436160FFF7E3FB804641F28839C9
:101090000DE021688903EFE78901EDE7FFF7D8FB51
:1010A000A0EB0801494502D90320BDE8F08760683C
:1010B000696800F00C00B0EB810FEFD1306800F0F0
:1010C0000700B8420BD9306820F007003843306081
:1010D000306800F00700B84201D00120E5E7287829
:1010E000400705D56068E96820F4E0600843606067
:1010F0002878000706D56068296920F4605040EA26
:10110000C100606000F028F86168084AC1F303116B
:10111000515CC8400649086006480068FFF706FFB2
:101120000020C2E700200240001002403E1D0008DF
:101130001800002010000020044805490068496894
:10114000044AC1F30221515CC840704718000020D6
:10115000001002404E1D00080E4A51680E4801F072
:101160000C03042B11D0082B0FD10C48C1F383437F
:10117000C903C05C0AD55168084AC1F34041921EB8
:10118000515C054A5043B0FBF1F0704704494843B5
:10119000704700000010024000127A002E1D000867
:1011A00000093D002DE9F84F040070D02078C04DB3
:1011B000C00749D06868C0F38100012807D068687B
:1011C000C0F38100022809D16868C00306D52868E9
:1011D000800339D560680028E7D035E06068B0F555
:1011E000803F0BD010B1B0F5A02F11D0286820F4AB
:1011F00080302860286820F4802002E0286840F4CD
:1012000080302860606890B1FFF722FB06460AE054
:10121000286840F480202860F0E700BFFFF718FB43
:10122000801B642873D828688003F7D50CE0FFF78B
:101230000FFB064605E000BFFFF70AFB801B642892
:10124000F0D828688003F7D420789A4E80074FF0B2
:1012500001094FF0000839D5686810F00C0F07D06D
:101260006868C0F38100022809D16868C00306D409
:101270002868800714D52069012808D110E020696A
:10128000B0B1C6F80090FFF7E3FA074605E00AE1BF
:10129000FFF7DEFAC01B0228C4D828688007F7D5FC
:1012A0002868616920F0F80040EAC10028600DE07C
:1012B000C6F80080FFF7CCFA074604E0FFF7C8FA4B
:1012C000C01B022823D828688007F7D4207800079D
:1012D0002CD57948A169D9B1C0F80090FFF7B8FAC8
:1012E000074604E0FFF7B4FAC01B02280FD8686A6B
:1012F0008007F7D571484FF4FA510068B0FBF1F060
:10130000009000BF0098411E0091FAD20EE080E0EC
:10131000C0F80080FFF79CFA074604E0FFF798FA50
:10132000C01B022875D8686A8007F7D42078400768
:1013300060D5E8690027C00008D4E86940F0805013
:10134000E861E869012700F0805000905C4801687E
:10135000C90513D40168834641F480710160FFF729
:1013600077FA824606E000BFFFF772FAA0EB0A00A8
:1013700064284ED8DBF80000C005F5D5E0680128E8
:101380000AD008B1052813D0286A20F0010028628D
:10139000286A20F0040002E0286A40F00100286278
:1013A000E06841F2883B98B1FFF752FA82460BE0C1
:1013B000286A40F004002862EEE700BFFFF748FA11
:1013C000A0EB0A0159455AD8286A8007F6D50CE0E7
:1013D000FFF73EFA824605E0FFF73AFAA0EB0A0172
:1013E00059454CD8286A8007F6D41FB1E86920F027
:1013F0008050E861E06988B36968C1F3810102291E
:1014000044D00228C6F8608004D0FFF721FA0446D1
:1014100038E034E0FFF71CFA074604E0FFF718FA5B
:10142000C01B02282BD828688001F7D4206AB0F5A9
:10143000803F05D16868A16820F4003008436860E7
:10144000D4E908010843696821F47411084368600D
:10145000C6F86090FFF7FCF9044606E025E000BFFF
:10146000FFF7F6F9001B022809D828688001F7D594
:101470001BE000BFFFF7ECF9001B022802D9032094
:10148000BDE8F88F28688001F4D40EE00128F7D079
:101490006868226A00F48031914204D1616A00F4E4
:1014A0007010884201D00120EAE70020E8E7000040
:1014B0000010024000004242800442421800002016
:1014C0000070004010B5401EB0F1807F01D30120B4
:1014D00010BD4FF0E02460610F21601700F0EAFAC0
:1014E0000020A06107202061002010BDFEE7000061
:1014F00001490860704700000800002001684A693F
:10150000D24352050FD46FF480624A61002140F843
:10151000301F202242738173026942F0040202618B
:10152000017301207047002070470000F8B50446A1
:10153000C06A1E460D461746082807D0012805D068
:1015400010F5803F02D0206B122804D1206801687A
:1015500041F480710160134600224FF001112046D2
:10156000009600F02FF940B120680068C00502D550
:101570004FF4007020640320F8BD2069B0F5804F5F
:101580000ED00620216800EAD51040F0F000086176
:1015900033463A460B49204600F05CF978B902E040
:1015A00005F0FE0000E0E8B2216808610549334615
:1015B0003A46891F204600F04DF90028DCD0012072
:1015C000F8BD0000080001002DE9F84F044600684E
:1015D00089460B9D01689846174641F48061016079
:1015E0002068016841F48071016000954FF0011B93
:1015F0000022594620460A9B00F0E4F84FF4007A96
:1016000040B120680068C00501D5C4F840A003209F
:10161000BDE8F88F216809F0FE0008612B462849D3
:1016200020460A9A00F016F9F0BB206841698069EB
:1016300000902A4620460A9900F0A2F940B1206C99
:1016400004283AD12068016841F40071016034E057
:10165000FEB2B8F1010F09D02168380A08612A46A4
:1016600020460A9900F08CF90028E8D1206806612C
:101670002A4620460A9900F083F90028DFD1206825
:10168000016841F4807101600095002259462046AE
:101690000A9B00F097F80028B3D1216809F0FF00F9
:1016A00040F00100086100E007E02B4604492046B5
:1016B0000A9A00F0CFF80028AAD00120A8E700007D
:1016C000020001002DE9F843044600680D46DDE9FB
:1016D000089701689846164641F4807101604B46B0
:1016E00000224FF001112046009700F06BF848B13E
:1016F00020680068C00502D54FF400702064032004
:10170000BDE8F883216805F0FE0008613B464A46C3
:101710001549204600F09EF888B920684169806923
:1017200000903A464946204600F02AF948B1206C1C
:10173000042804D12068016841F40071016001208F
:10174000DEE7F5B2B8F1010F09D02168300A08616F
:101750003A464946204600F013F90028E7D12068B0
:1017600005610020CCE700000200010070B51646BC
:101770000D4604461EE02046FFF7C0FE08B10120DA
:1017800070BD681C16D0FFF763F8801BA84200D814
:1017900085B920684069C04340070BD5002044F854
:1017A000300F20216173A073216941F02001216174
:1017B0002073E4E720684069C0434007DBD4002081
:1017C00070BD00002DE9F047984617460D460446C7
:1017D000C1F30746DDF820902AE000BFB8F1FF3FD3
:1017E00026D0FFF735F8A0EB0901414502D8B8F142
:1017F000000F1DD12068012E16D0806925EA000057
:101800000004000C12D00020B84211D1002044F88E
:10181000300F20216173A073216941F02001216103
:1018200020730120BDE8F0874069E7E70120EBE77E
:101830002068012E0AD0806925EA00000004000C0F
:1018400006D00020B842C9D00020EBE74069F3E79A
:101850000120F7E72DE9F047984616460D46044665
:101860004FF000094FF0200AC1F3074723E020683A
:101870004069C043400515D42068016841F40071F7
:10188000016021686FF480604861C4F8309084F88A
:101890003DA084F83E90216C41F00401216484F85D
:1018A0003C9021E0701C06D0FEF7D2FFA0EB0800B0
:1018B000B04203D816B1012F1FD021E02068012FBC
:1018C00015D0806925EA00000004000C18D000BF84
:1018D00044F8309F84F80DA084F80E90216941F0FF
:1018E0002001216184F80C900120BDE8F087406957
:1018F00025EA00000004000CEAD12068406901E0FC
:101900002068806925EA00000004000CAFD1ECE7F4
:101910002DE9F041002590460E460446202728E098
:101920004069C043C0060CD454F8301B6FF010005F
:10193000486144F810596777A577206A20622577B7
:1019400014E0FEF785FFA0EB0800B04200D886B98E
:1019500020684069C04340060BD544F8305F677388
:10196000A573206940F02000206125730120BDE8A7
:10197000F08120684169C9434906D1D40020F6E7C7
:1019800070B516460D4604461EE02046FFF7B6FD2C
:1019900008B1012070BD681C16D0FEF759FF801BEE
:1019A000A84200D885B920684069C04300060BD51D
:1019B000002044F8300F20216173A073216941F0A9
:1019C000200121612073E4E720684069C0430006DC
:1019D000DBD4002070BDFEE7FEE7704700B503468C
:1019E00085B00078FEF7EDFD8DF80C005878FEF715
:1019F000E8FD8DF80D009878FEF7E3FD8DF80E00F8
:101A0000D878FEF7DEFD8DF80F001879FEF7D9FDC6
:101A10008DF810005879FEF7D4FD8DF811009879F3
:101A2000FEF7CFFD8DF812004FF47A72072103A85C
:101A30008DE80700044801230022D0210068FFF749
:101A400095F905B000BD0000080000207047FFF7C1
:101A500053BA30B58FB028216846FEF7CDFC14216B
:101A60000AA8FEF7C9FC01210804CDE900100024F2
:101A7000029402250491CDE907504FF4E01009903B
:101A80006846FFF78FFB08B172B6FEE70F20CDE97D
:101A90000A054FF48060CDE90C4002210AA80E949B
:101AA000FFF7B4FA002801D072B6FEE70FB030BDE0
:101AB0007047FEE70907090E002804DB00F1E0206B
:101AC00080F80014704700F00F0000F1E02080F86B
:101AD000141D704730380A2801D2012070470020B9
:101AE0007047012000F038B8012805D04031C8B255
:101AF00040F0800000F030B88031C8B2FAE710B58D
:101B0000332000F029F8322000F026F83220FEF7CA
:101B10009DFD282000F020F83220FEF797FD0120DF
:101B200000F01AF83220FEF791FD062000F014F8BC
:101B30003220FEF78BFD0C2000F00EF83220FEF76D
:101B400085FD022000F008F83220FEF77FFDBDE899
:101B500010408020AFF300801CB500F0F00141F090
:101B60000C028DF8042041F0080100018DF80510E9
:101B700040F00C018DF8061040F008008DF80700C9
:101B800064200090042301AA4E210248FEF72AFF98
:101B90001CBD00001C0000201CB500F0F00141F04D
:101BA0000D028DF8042041F0090100018DF80510A7
:101BB00040F00D018DF8061040F009008DF8070087
:101BC00064200090042301AA4E210248FEF70AFF78
:101BD0001CBD00001C00002010B5044602E0641C7F
:101BE000FFF7DAFF20780028F9D110BD08B5FFF71C
:101BF0008BF9FFF72EFF3B48816941F0200181619D
:101C0000816901F020010091816941F00401816145
:101C1000816901F004010091816941F0080181614D
:101C20008069314900F00800009030484FF480424C
:101C300001602F49416000218160C0E903124161C8
:101C40008161C1610162FEF709FE08B172B6FEE76B
:101C50004FF47A70FEF7FAFCFFF751FF2348FFF7C5
:101C600047FC2448FFF7BAFE02210120FFF73CFFA2
:101C700021A0FFF7B1FF08210220FFF735FF20A0C8
:101C8000FFF7AAFF4FF47A60FEF7E0FCFFF729FFA9
:101C90006420FEF7DBFC174C1648FEF79FFCA0798A
:101CA000009012486379227917A15430FEF790FA18
:101CB000207800900D486378A27817A16830FEF76D
:101CC00087FA04210120FFF70FFF08485430FFF77F
:101CD00083FF02210846FFF707FF04486830FFF73B
:101CE0007BFFD9E700100240005400401C00002098
:101CF000A0860100000000205054445F39313000BC
:101D0000436C6F636B202100253032642F25303205
:101D1000642F25303264000025303264203A2025BB
:101D2000303264203A202530326400000102020380
:101D30000405060708090A0B0C0D0E0F1010000011
:101D4000000000000000010203040607080900006B
:101D5000000001020304040000080000000000006D
:101D60000002000100001000881D00080000002093
:101D70001C00000028010008A41D00081C00002011
:101D8000DC0600004401000800111005110A1800CB
:101D90000000000001000000100000000000000032
:041DA00000127A00B3
:04000005080000ED02
:00000001FF
